:020000040800F2
:1000000008070020650200085D1500084914000873
:10001000591500085D0400082916000800000000BA
:10002000000000000000000000000000651500084E
:10003000610400080000000061150008691500084F
:100040007F0200087F0200087F0200087F0200088C
:100050007F0200087F0200087F0200087F0200087C
:100060007F0200087F0200087F0200087F0200086C
:100070007F0200087F0200087F0200087F0200085C
:100080007F0200087F0200087F02000800000000D5
:100090000000000000000000000000007F020008D7
:1000A0007F0200087F0200087F0200087F0200082C
:1000B0007F0200087F0200087F0200087F0200081C
:1000C0007F0200087F0200087F0200087F0200080C
:1000D0007F0200087F0200087F0200080000000085
:1000E0007F0200087F0200087F0200080000000075
:1000F0000000000000000000000000007F02000877
:10010000000000007F0200087F0200087F02000854
:1001100000000000000000000000000000000000DF
:100120007F0200087F0200087F0200087F020008AB
:100130007F02000800000000000000000000000036
:100140000000000000000000000000007F02000826
:100150007F0200087F0200087F0200087F0200087B
:100160007F0200087F02000800000000000000007D
:10017000000000000000000000000000000000007F
:10018000000000007F0200080000000000000000E6
:100190007F0200087F02000800F002F800F052F829
:1001A00014A696E8000CB244B344DA4501D100F03D
:1001B00049F8BAE80F000FA696E83000A5EB040551
:1001C00004EB0607AAEB0704A7F101074FEA151590
:1001D0004FEA3414A4F10104AC4201D300F032F828
:1001E00013F0010F18BFFB1A43F0010300F001F8F0
:1001F000DBE71847A8160000C8160000103A24BF15
:1002000078C878C1FAD8520724BF30C830C144BF7B
:1002100004680C6070470000704700000023002451
:1002200000250026103A28BF78C1FBD8520728BF06
:1002300030C148BF0B6070471FB501F019FB1FBDEF
:1002400010B510BD00F0D0F81146FFF7F5FF01F032
:10025000EDF900F0EEF803B4FFF7F2FF03BC00F095
:10026000F5F800000948804709480047FEE7FEE727
:10027000FEE7FEE7FEE7FEE7FEE7FEE7FEE7FEE756
:1002800004480549054A064B70470000151600084A
:100290009901000808010020080700200803002039
:1002A0000803002053EA020C00F069802DE9F04BAE
:1002B0004FF00006002B1FBFB3FA83F503FA05F4D5
:1002C00024FA05F65E4012BF1643B2FA82F502FA2E
:1002D00005F4C5F120051EBF22FA05FC44EA0C0412
:1002E000203556EA044C4FEA144418BF641C4FF002
:1002F00000084FF00009904271EB030C39D300293C
:1003000019BFB1FA81F701FA07F6B0FA80F700FADF
:1003100007F6C7F120071EBF20FA07FC46EA0C06C5
:100320002037B6FBF4FCA7EB0507103F07F01F0BC7
:10033000CBF120062CFA06F60CFA0BFB44BFB346B1
:100340000026202FA4BF5E464FF0000B5BEA060C90
:1003500008BF4FF0010B19EB0B0948EB0608ABFB8C
:10036000027C06FB02CC0BFB03CCC01B71EB0C0127
:10037000C1E70B46024641464846BDE8F08B13B53F
:10038000084318BF4FF0FF300146AFF30080BDE8CF
:100390001C4070474FF0000200B513469446964645
:1003A000203922BFA0E80C50A0E80C50B1F1200188
:1003B000BFF4F7AF090728BFA0E80C5048BF0CC036
:1003C0005DF804EB890028BF40F8042B08BF704794
:1003D00048BF20F8022B11F0804F18BF00F8012B06
:1003E0007047704770477047754600F02BF8AE466F
:1003F00005006946534620F00700854618B020B531
:10040000FFF73EFFBDE820404FF000064FF0000729
:100410004FF000084FF0000BAC46ACE8C009ACE868
:10042000C009ACE8C009ACE8C00921F007018D465D
:10043000704710B50446AFF300802046BDE8104079
:10044000FFF709BF0048704710000020014918203D
:10045000ABBEFEE72600020070470000FEE700008A
:1004600070470000B0B5044600F0EEF8054640F2D3
:100470000000C2F200000078611C18BF044400BFF5
:1004800000F0E2F8401BA042FAD3B0BD2DE9F04FD6
:1004900083B000F1200200F13E4741F200050092D6
:1004A00007F1FF77C4F2020507224FEAB726A842F8
:1004B00008BF042200254FF000084FF00009042E69
:1004C00038BF4FEAB72201920AE000BF09F10109E3
:1004D00008F10208B9F1100F05F1040500F0A2803F
:1004E0000F68012202FA09FE17EA0E0AEED0D1F8CF
:1004F00004C003220CF003077E1E02FA08F4012E4A
:100500006FEA040B12D88468CE6804EA0B0406FA7A
:1005100008F634438460446824EA0E06CCF30014E1
:1005200004FA09F42643466004E000BF032F01D11A
:1005300003271EE0C6688C6806EA0B0604FA08F476
:100540002643022FC66014D16FF00302009E02EA18
:10055000590756F807C005F01C040F220B69A2408A
:100560002CEA0202A3401A43F251D1F804C00CF065
:100570000307026807FA08F302EA0B021A431CF4A5
:10058000403F0260A2D0002243F644030292C4F22C
:1005900002031A6843F6004442F480421A601A6863
:1005A000C4F2010402F480420292029A29F003028A
:1005B0004FF6084C2244CFF6FF7C52F80C3005F081
:1005C0000C070F26BE40B343019E06FA07F73B43D4
:1005D00042F80C30A2684B6842EA0A0743F60C4C1A
:1005E000DE0258BF22EA0A07A760C4F2010CDCF859
:1005F00000209E0242EA0A0758BF22EA0A07CCF806
:10060000007062689E0342EA0A0758BF22EA0A079E
:1006100067602268DB0342EA0A0758BF22EA0A073A
:10062000276053E703B0BDE8F08F0000426902EA9B
:100630000103914341EA034181617047002A08BFE9
:10064000090481617047000040F20010C2F200000E
:10065000006870472DE9F04186B00446006844F216
:100660000C05816843F20448C4F20005C4F2000896
:10067000059108F57F77291FB84208BF08F10401EA
:10068000096808F5406604914168B8420391314613
:1006900004BF43F20441C4F200010A680292626896
:1006A00042F40072B2F5007F4CD10599890744BF2E
:1006B00003995FEA01617BD40498C00721D00298B6
:1006C00040061ED52068E16AB84208BF08F1080557
:1006D0002A6821F8022BE162618E01396186618E00
:1006E00079B9B842304608BF4046016821F0600140
:1006F0000160608D28B9012084F84100204600F097
:10070000E5F80498400644BF02985FEA80606BD425
:100710000598000744BF03985FEA806044D52068CD
:100720004168B84221F0A001416008BF46463168E7
:1007300021F06001316000210191806801900198F1
:10074000B6E000BF049A920744BF029A5FEA0262D1
:100750006AD40598C00719D00398400616D52068BA
:10076000E16AC26821F8022BE162618E013961867B
:10077000618E59B9416821F060014160608D28B9EE
:10078000012084F84100204600F0A0F805984006BA
:1007900044BF03985FEA806066D40498000744BFB2
:1007A00002985FEA806077D406B0BDE8F08100BFB0
:1007B000616A31F8022B6162C260618D0139618525
:1007C000618D00297FF478AF416821F0A00141607C
:1007D000608E00287FF470AF012084F8410020462D
:1007E00000F074F868E700BF20683146B84208BFDF
:1007F00041460A6822F060020A60416821F0A001C7
:10080000416000210191C1680191806801900198C7
:10081000012084F84100606C40F0020060642046D2
:1008200000F056F874E700BF626AB84232F8023B43
:10083000626208BF08F108052B60608D0138608591
:10084000608D00287FF485AF086820F0A000086064
:10085000608E00287FF47DAF012084F8410020469F
:1008600000F034F875E700BF20684168B84221F015
:1008700060014160304608BF4046016821F0A00198
:100880000160012084F84100606C40F00200606467
:10089000204600F01DF880E72068B84208BF4646B1
:1008A000316821F0A0013160416821F060014160B0
:1008B000012084F84100606C40F00401204661642E
:1008C00006B0BDE8F04100F003B80000704700003A
:1008D00070470000002804BF012070472DE9F04157
:1008E000044690F8410050B9002084F8400041F2DD
:1008F0004D40C0F600006063204600F0A5F80221DC
:1009000084F8411020686269C36940F6BF76B3433A
:10091000022AC361016203D12169022244E000BFBF
:10092000D4E90206002521284FF0010038BF012537
:1009300000F0DAF92169B1F5007F07D1E368626957
:1009400063B10723002E08BF06230BE00522002E0B
:1009500008BF04222A44D040626905E00823002E23
:1009600008BF07232B44D84000EB80004000B0FBB9
:10097000F2F04CF6CD420530CCF6CC42A0FB022082
:100980006FF0FF0202EB101212F1FE0F06D2606C44
:1009900040F0100060640120BDE8F081020900F021
:1009A0000803206842EA431211430162C16940F61C
:1009B000BF7CD4E9015821EA0C06E26846EA080641
:1009C000A36916432E431E4346F40066C661266A99
:1009D000012E31D140F2556643F21C4EC0F600069E
:1009E000C4F2000E66630EF579760EF54067B042EC
:1009F00004BF43F21C47C4F200073968B04221EA41
:100A00000C01396044F22001C4F200014FF00200F1
:100A100008BF0EF10401086038686FF400714FF4EC
:100A200000660D4208BF4FF41066304340EA0800EC
:100A30001043184380B2386000200121606484F8BC
:100A40004110BDE8F08100002DE9F04186B000685A
:100A500043F60041C4F2000100258842CDE9045567
:100A6000CDE90255019551D043F60001C4F20001D1
:100A7000884240F08980002643F630000096C4F298
:100A80000200016940F6000441F4804101610169FE
:100A9000C4F2020401F480410091009900960168BB
:100AA00001AD41F00401016001684FF0020801F05E
:100AB0000401009100990096016841F00201016073
:100AC0000068294600F00200009000980420019080
:100AD000062005902046CDE902860496FFF7D6FC55
:100AE0000820CDE90108052720462946CDE90366FF
:100AF0000597FFF7CBFC4FF4A050CDE90108CDE9F5
:100B000003660597A4F580643AE000BF43F6300021
:100B10000095C4F20200016940F6000441F400416E
:100B200001610169C4F2020401F4004100910099DD
:100B300000950168022641F0010101600168062765
:100B400001F00101009100990095016841F0040154
:100B50000160006801A900F00400009000981020D6
:100B60000190A4F50060CDE9026504950597FFF7B3
:100B70008DFC4FF4A450CDE90106CDE9035505974E
:100B800001A92046FFF782FC06B0BDE8F081000015
:100B9000704700007047000040F2000040F2001172
:100BA000C2F20000C2F2000100780A681044086036
:100BB0007047000080B543F60040C4F202000168AF
:100BC00041F400710160016841F4806101600168D5
:100BD00041F480710160032000F076F8002000F0FD
:100BE00005F800F027F8002080BD000070B540F245
:100BF0000006C2F2000640F208013278C2F200019B
:100C00004FF47A730968B3FBF2F20446B1FBF2F1D8
:100C1000084600F003FC0F2C4FF0010508D838B946
:100C20004FF0FF3021460022002500F021F87460CB
:100C3000284670BD82B0002043F640010190C4F206
:100C400002014A6842F480424A604A6802F48042E3
:100C50000192019A0090086840F08050086008688E
:100C600000F0805000900098072002B000F02CB8EF
:100C700010B54EF60C5CCEF2000CDCF80030C3F37D
:100C8000022E8EF00704042C28BF0424BEF10303B7
:100C90004FF0FF3E0EFA04F438BF0023A143994001
:100CA0000EFA03F39A43114300F00F0200F1604380
:100CB0000901043A03F564436244002848BF02F185
:100CC0000C03197010BD00004EF60C51CEF200015D
:100CD0000A684FF6FF031A4060F30A2242F0806070
:100CE00040F0FD700860704701281CBF002070476D
:100CF00043F68400C4F2020050F87C1C090242BF93
:100D000048F20000C0F2BB00704750F8801C026837
:100D1000490241F20021C0F27A0102F03F025CBFB9
:100D200042F20041C0F2F4010368B1FBF2F1006845
:100D3000C3F388125143C0F30270B1FBF0F0704767
:100D4000F0B581B00446006810F0050F2DD068277B
:100D5000C4F2472743F670060020C4F2020638604A
:100D6000FFF772FC054600BF56F8700C000105D570
:100D7000FFF76AFC401B0228F6D93DE0221D07CA96
:100D800040EA811040EA0270706101203860FFF78C
:100D90005BFC054656F8700C000105D4FFF754FCC7
:100DA000401B0228F6D927E02068810758D543F672
:100DB00070060020C4F20206009056F8300C47F28C
:100DC000000740F0805046F8300C56F8300CC4F262
:100DD000000700F0805000900098386840F4807060
:100DE0003860FFF731FC05463868C00508D4FFF7C6
:100DF0002BFC401B0228F7D9032001B0F0BD00BF37
:100E0000306810F4407013D0216901F440718842B9
:100E10000ED0306840F64061C4F24721012220F430
:100E200040700A6000220A6030603068C00723D139
:100E30002068216956F8682C4FF6FF4701F440738B
:100E400022F4F812C0F6FF770F40B3F5407F08BFD9
:100E50003A4346F8682C32686FF31F311143316012
:100E6000000706D5207D40F64061C4F24721C1F855
:100E7000A003002001B0F0BDFFF7E6FB054641F2FC
:100E8000883700BF30688007D2D4FFF7DDFB401BF6
:100E9000B8424FF00300F5D9ECE70000002804BF8A
:100EA000012070472DE9F04143F60808C4F202081A
:100EB0000446D8F8F8030D4600F00700814207D930
:100EC00088F8F853D8F8F80300F00700A84277D163
:100ED0002068810717D5410705D5D8F8001041F4DF
:100EE000E051C8F80010010705D5D8F8001041F40A
:100EF0006041C8F80010D8F80010A26821F0F00195
:100F00001143C8F80010C00740D1D8F8F80300F02A
:100F10000700854207D288F8F853D8F8F80300F0A4
:100F20000700A8424CD12068410707D5D8F8001027
:100F3000E26821F4E0511143C8F80010000708D519
:100F4000D8F80000216920F4604040EAC100C8F8E8
:100F5000000000F055F8D8F8001041F68A02C1F3FD
:100F60000311C0F60002515C40F2080220FA01F1C0
:100F700040F20400C2F200000068C2F200021160F8
:100F8000FFF734FE0020BDE8F08100BF6068811EDD
:100F9000022907D258F8081C89015CBF0120BDE86E
:100FA000F08111E0012807D158F8081C89035CBFC3
:100FB0000120BDE8F08107E058F8081C890703D438
:100FC0000120BDE8F08100BFD8F8001021F0030136
:100FD0000843C8F80000FFF737FB064641F28837A0
:100FE000D8F80000616800F00C00B0EB810F8CD0E5
:100FF000FFF72AFB801BB842F2D90320BDE8F0813D
:1010000010B543F60404C4F202046168C1F381011F
:1010100042F20040C0F2F400DFE801F002040A02EC
:1010200010BD00BF41F20020C0F27A0010BD00BF29
:10103000216801F03F02216823684902C3F3881147
:1010400006D4A1FB00010023FFF72CF907E000BF45
:1010500041F20020C0F27A004843B0FBF2F0216870
:101060000222C1F3014102EB4101B0FBF1F010BDDE
:10107000002804BF012070472DE9F04182B00446EA
:10108000007843F60006C007C4F202060CD0B06830
:1010900000F00C00042840F081803068800303D504
:1010A0006068002800F06881207880071BD5B06850
:1010B00010F00C0F09D0B06800F00C00082840F0C8
:1010C00087807068400200F183803068800703D514
:1010D000E068012840F050813068216920F0F80074
:1010E00040EAC10030602078000713D42078400720
:1010F0002AD4A569002D00F03A81B06800F00C00F8
:10110000082840F0A580012D40F00E81012002B09A
:10111000BDE8F0816069002800F082800020C4F200
:1011200047200121C0F8801EFFF78EFA054600BF58
:10113000706F8007DAD4FFF787FA401B0228F7D9CF
:10114000032002B0BDE8F081306C5FEAC0080AD429
:1011500000200190306C40F080503064306C00F022
:1011600080500190019847F20007C4F200073868E8
:10117000C00547D4386840F480703860FFF764FADF
:10118000054600BF3868C0053CD4FFF75DFA401B38
:101190000228F7D9032002B0BDE8F081B06800F062
:1011A0000C00082803D1706840023FF576AF6168F3
:1011B0003068B1F5803F07D0B1F5A02F40F09A809C
:1011C00040F480203060306840F4803030609AE035
:1011D000E068002840F20000C4F247205CD0012102
:1011E0000160FFF731FA0546306880073FF574AFBC
:1011F000FFF72AFA401B0228F6D9032002B0BDE807
:10120000F08100BFA168306F012905D0052955D1B3
:1012100040F004003067306F40F00100306756E066
:101220000020C4F247200021C0F8801EFFF70CFA0E
:10123000054600BF706F80077FF558AFFFF704FACF
:10124000401B0228F6D9032002B0BDE8F08100BFA0
:101250000027C4F2472700203866FFF7F5F9022D72
:1012600005460DD13068800140F18A80FFF7ECF926
:10127000401B02284FF00300F4D902B0BDE8F08112
:101280003068800173D5FFF7DFF9401B02284FF06B
:101290000300F5D9F1E700BF00210160FFF7D4F9A1
:1012A000054600BF306880077FF51DAFFFF7CCF91A
:1012B000401B02284FF00300F4D9DEE720F00100C4
:1012C0003067306F002920F0040030677AD0FFF7D4
:1012D000BBF9054641F28837306F800700F1848002
:1012E000FFF7B2F9401BB842F6D9032002B0BDE8BF
:1012F000F08100BF20F4803030603068002920F495
:10130000802030607AD0FFF79FF90546306880036F
:101310003FF5CAAEFFF798F9401B6428F6D90320C1
:1013200002B0BDE8F08100BF7068E16900F480029E
:101330008A4221D1216A00F03F028A421CD147F63D
:10134000C071626A0140B1EB821F15D1A16A4FF6EC
:10135000FF73C903994300F44032A1F580318A42FA
:101360000AD1E16A00F07060B0EB016F04D1002097
:1013700002B0BDE8F08100BF012002B0BDE8F081FD
:1013800004F11C052FCD084340EA8210D9034FF623
:10139000FF729143A1F5803140EA05600843706017
:1013A00001203866FFF750F9044600BF306880011D
:1013B000DDD4FFF749F9001B02284FF00300F5D9EF
:1013C0005BE700BFFFF740F9054641F2883700BFF1
:1013D000306F800708D5FFF737F9401BB8424FF050
:1013E0000300F5D949E700BFB8F1000F3FF581AE22
:1013F000306C20F0805030647BE600BFFFF724F9AA
:10140000054600BF306880037FF54EAEFFF71CF93C
:10141000401B64284FF00300F4D92EE7411E002042
:10142000B0EB116F1CBF012070474EF21002CEF2DC
:10143000000251604EF62351CEF20001F0230B70F2
:101440000721906011607047FEE7000010B584B07E
:1014500001688A68039290F84120042A37D1039AE0
:10146000D20717D04A68520614D5CA68C36A23F84F
:10147000022BC362428E013A4286428E52B94A68BA
:10148000044622F060024A60012180F84110FFF713
:101490007FFB20460399490619D501684A689206E0
:1014A00015D54A68044622F060024A600022029282
:1014B000CA680292896802910299012180F841105C
:1014C000416C41F002014164FFF702FA204690F8B6
:1014D0004110032917D1039989070DD501684A687E
:1014E000120609D5426A32F8023BCB604262428D55
:1014F000013A4285428DFAB10399090703D5016883
:101500004A68920602D404B010BD00BF4A6822F0B7
:10151000A0024A600022019289680191019901218B
:1015200080F84110416C41F00401416404B0BDE811
:101530001040FFF7CDB900BF4A68044622F0A00270
:101540004A60012180F84110FFF724FB20460399EF
:101550000907D4D4D7E70000FEE70000FEE700004B
:101560007047000070470000FFF716BB70B592B0DF
:1015700006AC20463021FEF70DFF002543F6400063
:101580000595CDE90355CDE901550095C4F202005A
:101590000168022641F080510160006800F080502F
:1015A0000090009847F200000095C4F20000016826
:1015B00041F4404101600068C02100F440400090C7
:1015C0000098012006904FF4A02007904FF480006F
:1015D0000D9004200E90CDE90F10082011902046A8
:1015E0000C96FFF745FD18B172B600BFFEE700BFCD
:1015F0000F20CDE901064FF4A050CDE9040501A864
:1016000003210395FFF74AFC10B172B6FEE700BF55
:1016100012B070BD4EF68850CEF20000016841F461
:101620007001016070470000FEE7000088B0FFF71E
:10163000C1FAFFF79BFFC82003900520029002200B
:1016400000254FF0010A049001A8CDE90555CDF819
:1016500004A0FFF775FB18B172B600BFFEE700BF2C
:1016600043F630000595CDE90355CDE901550795C1
:10167000C4F20200016840F2000841F0100101606C
:101680000168C4F2020801F010010791079907955B
:10169000016808F5805741F00401016001680022EB
:1016A00001F0040107910799079501684FF0080BB5
:1016B00041F080010160016801F080010791079904
:1016C0000795016841F001010160016801F0010125
:1016D000079107990795016841F0020101600168CF
:1016E00001F00201079107990795016841F008018F
:1016F00001600068082100F008000790079838464C
:10170000FEF79CFF08F50069484601210122FEF71B
:1017100095FF08F5406420464FF210010022FEF7C5
:101720008DFF042001AECDE9010538463146039511
:10173000FEF7ACFE38463146CDE901BACDE9035596
:10174000FEF7A4FE322001904FF4901B384631463C
:10175000CDE902B5FEF79AFE48463146CDE901AA29
:10176000CDE90355FEF792FE40463146CDE901AB87
:101770000395FEF78BFEE020019005204FF0020B51
:101780000327059040463146CDE902B50497FEF7A0
:101790007DFE4FF21000CDE9010A20463146CDE929
:1017A0000355FEF773FE4FF4007940463146CDE90C
:1017B00001950395FEF76AFE4FF4E050CDE9010B69
:1017C0000A20059040463146CDE90357FEF75EFEFC
:1017D0002020CDE90105204631460395FEF756FE4F
:1017E0004FF4107001901220CDE9020A04200590F8
:1017F00008F58060314647F200760495C0F2010694
:10180000FEF744FE40F27000A8F5E431C2F2000099
:10181000C0E90019C0E90255C0E90456C0E90655FF
:10182000C0F820A0FFF756F810B172B6FEE700BF6F
:1018300040F2B800A8F5E231C2F200000022C0E98F
:101840000019C0E90222C0E90496C0E9062202623A
:10185000FFF740F810B172B6FEE700BF20464FF424
:101860000041FEF7E3FE4FF47A70FEF7FBFDF5E76B
:10187000F1EE100A4FF6FF71C0F2C03120EA01000C
:1018800040F04070E1EE100A7047000000000000D8
:10189000000001020304060708090000C018000840
:1018A0000000002010000000FC010008D018000813
:1018B00010000020F80600001C02000800000000D4
:1018C00001000000100000000024F40000000000EF
:040000050800019955
:00000001FF
